{
  "contractName": "Flockie",
  "abi": [
    {
      "inputs": [],
      "stateMutability": "nonpayable",
      "type": "constructor"
    },
    {
      "anonymous": false,
      "inputs": [
        {
          "indexed": true,
          "internalType": "address",
          "name": "owner",
          "type": "address"
        },
        {
          "indexed": true,
          "internalType": "address",
          "name": "approved",
          "type": "address"
        },
        {
          "indexed": true,
          "internalType": "uint256",
          "name": "tokenId",
          "type": "uint256"
        }
      ],
      "name": "Approval",
      "type": "event"
    },
    {
      "anonymous": false,
      "inputs": [
        {
          "indexed": true,
          "internalType": "address",
          "name": "owner",
          "type": "address"
        },
        {
          "indexed": true,
          "internalType": "address",
          "name": "operator",
          "type": "address"
        },
        {
          "indexed": false,
          "internalType": "bool",
          "name": "approved",
          "type": "bool"
        }
      ],
      "name": "ApprovalForAll",
      "type": "event"
    },
    {
      "anonymous": false,
      "inputs": [
        {
          "indexed": true,
          "internalType": "address",
          "name": "from",
          "type": "address"
        },
        {
          "indexed": true,
          "internalType": "address",
          "name": "to",
          "type": "address"
        },
        {
          "indexed": true,
          "internalType": "uint256",
          "name": "tokenId",
          "type": "uint256"
        }
      ],
      "name": "Transfer",
      "type": "event"
    },
    {
      "inputs": [
        {
          "internalType": "address",
          "name": "to",
          "type": "address"
        },
        {
          "internalType": "uint256",
          "name": "tokenId",
          "type": "uint256"
        }
      ],
      "name": "approve",
      "outputs": [],
      "stateMutability": "nonpayable",
      "type": "function"
    },
    {
      "inputs": [
        {
          "internalType": "address",
          "name": "owner",
          "type": "address"
        }
      ],
      "name": "balanceOf",
      "outputs": [
        {
          "internalType": "uint256",
          "name": "",
          "type": "uint256"
        }
      ],
      "stateMutability": "view",
      "type": "function",
      "constant": true
    },
    {
      "inputs": [
        {
          "internalType": "uint256",
          "name": "tokenId",
          "type": "uint256"
        }
      ],
      "name": "getApproved",
      "outputs": [
        {
          "internalType": "address",
          "name": "",
          "type": "address"
        }
      ],
      "stateMutability": "view",
      "type": "function",
      "constant": true
    },
    {
      "inputs": [
        {
          "internalType": "address",
          "name": "",
          "type": "address"
        }
      ],
      "name": "hasVoted",
      "outputs": [
        {
          "internalType": "bool",
          "name": "",
          "type": "bool"
        }
      ],
      "stateMutability": "view",
      "type": "function",
      "constant": true
    },
    {
      "inputs": [
        {
          "internalType": "address",
          "name": "owner",
          "type": "address"
        },
        {
          "internalType": "address",
          "name": "operator",
          "type": "address"
        }
      ],
      "name": "isApprovedForAll",
      "outputs": [
        {
          "internalType": "bool",
          "name": "",
          "type": "bool"
        }
      ],
      "stateMutability": "view",
      "type": "function",
      "constant": true
    },
    {
      "inputs": [
        {
          "internalType": "address",
          "name": "",
          "type": "address"
        }
      ],
      "name": "isRegistered",
      "outputs": [
        {
          "internalType": "bool",
          "name": "",
          "type": "bool"
        }
      ],
      "stateMutability": "view",
      "type": "function",
      "constant": true
    },
    {
      "inputs": [],
      "name": "name",
      "outputs": [
        {
          "internalType": "string",
          "name": "",
          "type": "string"
        }
      ],
      "stateMutability": "view",
      "type": "function",
      "constant": true
    },
    {
      "inputs": [
        {
          "internalType": "uint256",
          "name": "tokenId",
          "type": "uint256"
        }
      ],
      "name": "ownerOf",
      "outputs": [
        {
          "internalType": "address",
          "name": "",
          "type": "address"
        }
      ],
      "stateMutability": "view",
      "type": "function",
      "constant": true
    },
    {
      "inputs": [
        {
          "internalType": "address",
          "name": "from",
          "type": "address"
        },
        {
          "internalType": "address",
          "name": "to",
          "type": "address"
        },
        {
          "internalType": "uint256",
          "name": "tokenId",
          "type": "uint256"
        }
      ],
      "name": "safeTransferFrom",
      "outputs": [],
      "stateMutability": "nonpayable",
      "type": "function"
    },
    {
      "inputs": [
        {
          "internalType": "address",
          "name": "from",
          "type": "address"
        },
        {
          "internalType": "address",
          "name": "to",
          "type": "address"
        },
        {
          "internalType": "uint256",
          "name": "tokenId",
          "type": "uint256"
        },
        {
          "internalType": "bytes",
          "name": "data",
          "type": "bytes"
        }
      ],
      "name": "safeTransferFrom",
      "outputs": [],
      "stateMutability": "nonpayable",
      "type": "function"
    },
    {
      "inputs": [
        {
          "internalType": "address",
          "name": "operator",
          "type": "address"
        },
        {
          "internalType": "bool",
          "name": "approved",
          "type": "bool"
        }
      ],
      "name": "setApprovalForAll",
      "outputs": [],
      "stateMutability": "nonpayable",
      "type": "function"
    },
    {
      "inputs": [
        {
          "internalType": "bytes4",
          "name": "interfaceId",
          "type": "bytes4"
        }
      ],
      "name": "supportsInterface",
      "outputs": [
        {
          "internalType": "bool",
          "name": "",
          "type": "bool"
        }
      ],
      "stateMutability": "view",
      "type": "function",
      "constant": true
    },
    {
      "inputs": [],
      "name": "symbol",
      "outputs": [
        {
          "internalType": "string",
          "name": "",
          "type": "string"
        }
      ],
      "stateMutability": "view",
      "type": "function",
      "constant": true
    },
    {
      "inputs": [
        {
          "internalType": "uint256",
          "name": "tokenId",
          "type": "uint256"
        }
      ],
      "name": "tokenURI",
      "outputs": [
        {
          "internalType": "string",
          "name": "",
          "type": "string"
        }
      ],
      "stateMutability": "view",
      "type": "function",
      "constant": true
    },
    {
      "inputs": [
        {
          "internalType": "address",
          "name": "from",
          "type": "address"
        },
        {
          "internalType": "address",
          "name": "to",
          "type": "address"
        },
        {
          "internalType": "uint256",
          "name": "tokenId",
          "type": "uint256"
        }
      ],
      "name": "transferFrom",
      "outputs": [],
      "stateMutability": "nonpayable",
      "type": "function"
    },
    {
      "inputs": [
        {
          "internalType": "address",
          "name": "recipient",
          "type": "address"
        },
        {
          "internalType": "string",
          "name": "tokenURI",
          "type": "string"
        }
      ],
      "name": "mintNFT",
      "outputs": [
        {
          "internalType": "uint256",
          "name": "",
          "type": "uint256"
        }
      ],
      "stateMutability": "nonpayable",
      "type": "function"
    },
    {
      "inputs": [
        {
          "internalType": "address",
          "name": "voter",
          "type": "address"
        },
        {
          "internalType": "uint256",
          "name": "acc",
          "type": "uint256"
        }
      ],
      "name": "vote",
      "outputs": [],
      "stateMutability": "payable",
      "type": "function",
      "payable": true
    },
    {
      "inputs": [],
      "name": "getVoteUpdate",
      "outputs": [
        {
          "internalType": "bool",
          "name": "",
          "type": "bool"
        }
      ],
      "stateMutability": "view",
      "type": "function",
      "constant": true
    }
  ],
  "bytecode": "0x60806040526000600a556000600b556000600c553480156200002057600080fd5b506040518060400160405280600781526020017f466c6f636b6965000000000000000000000000000000000000000000000000008152506040518060400160405280600381526020017f464c4b000000000000000000000000000000000000000000000000000000000081525081600090816200009e919062000333565b508060019081620000b0919062000333565b5050506200041a565b600081519050919050565b7f4e487b7100000000000000000000000000000000000000000000000000000000600052604160045260246000fd5b7f4e487b7100000000000000000000000000000000000000000000000000000000600052602260045260246000fd5b600060028204905060018216806200013b57607f821691505b602082108103620001515762000150620000f3565b5b50919050565b60008190508160005260206000209050919050565b60006020601f8301049050919050565b600082821b905092915050565b600060088302620001bb7fffffffffffffffffffffffffffffffffffffffffffffffffffffffffffffffff826200017c565b620001c786836200017c565b95508019841693508086168417925050509392505050565b6000819050919050565b6000819050919050565b6000620002146200020e6200020884620001df565b620001e9565b620001df565b9050919050565b6000819050919050565b6200023083620001f3565b620002486200023f826200021b565b84845462000189565b825550505050565b600090565b6200025f62000250565b6200026c81848462000225565b505050565b5b8181101562000294576200028860008262000255565b60018101905062000272565b5050565b601f821115620002e357620002ad8162000157565b620002b8846200016c565b81016020851015620002c8578190505b620002e0620002d7856200016c565b83018262000271565b50505b505050565b600082821c905092915050565b60006200030860001984600802620002e8565b1980831691505092915050565b6000620003238383620002f5565b9150826002028217905092915050565b6200033e82620000b9565b67ffffffffffffffff8111156200035a5762000359620000c4565b5b62000366825462000122565b6200037382828562000298565b600060209050601f831160018114620003ab576000841562000396578287015190505b620003a2858262000315565b86555062000412565b601f198416620003bb8662000157565b60005b82811015620003e557848901518255600182019150602085019450602081019050620003be565b8683101562000405578489015162000401601f891682620002f5565b8355505b6001600288020188555050505b505050505050565b613010806200042a6000396000f3fe6080604052600436106101095760003560e01c806370a0823111610095578063b88d4fde11610064578063b88d4fde14610380578063c3c5a547146103a9578063c87b56dd146103e6578063e985e9c514610423578063eacabe141461046057610109565b806370a08231146102c457806395d89b4114610301578063a22cb4651461032c578063a9ded35e1461035557610109565b806309eef43e116100dc57806309eef43e146101dc57806323b872dd1461021957806342842e0e146102425780635f74bbde1461026b5780636352211e1461028757610109565b806301ffc9a71461010e57806306fdde031461014b578063081812fc14610176578063095ea7b3146101b3575b600080fd5b34801561011a57600080fd5b5061013560048036038101906101309190611e39565b61049d565b6040516101429190611e81565b60405180910390f35b34801561015757600080fd5b5061016061057f565b60405161016d9190611f2c565b60405180910390f35b34801561018257600080fd5b5061019d60048036038101906101989190611f84565b610611565b6040516101aa9190611ff2565b60405180910390f35b3480156101bf57600080fd5b506101da60048036038101906101d59190612039565b610657565b005b3480156101e857600080fd5b5061020360048036038101906101fe9190612079565b61076e565b6040516102109190611e81565b60405180910390f35b34801561022557600080fd5b50610240600480360381019061023b91906120a6565b61078e565b005b34801561024e57600080fd5b50610269600480360381019061026491906120a6565b6107ee565b005b61028560048036038101906102809190612039565b61080e565b005b34801561029357600080fd5b506102ae60048036038101906102a99190611f84565b610910565b6040516102bb9190611ff2565b60405180910390f35b3480156102d057600080fd5b506102eb60048036038101906102e69190612079565b610996565b6040516102f89190612108565b60405180910390f35b34801561030d57600080fd5b50610316610a4d565b6040516103239190611f2c565b60405180910390f35b34801561033857600080fd5b50610353600480360381019061034e919061214f565b610adf565b005b34801561036157600080fd5b5061036a610af5565b6040516103779190611e81565b60405180910390f35b34801561038c57600080fd5b506103a760048036038101906103a291906122c4565b610b35565b005b3480156103b557600080fd5b506103d060048036038101906103cb9190612079565b610b97565b6040516103dd9190611e81565b60405180910390f35b3480156103f257600080fd5b5061040d60048036038101906104089190611f84565b610bb7565b60405161041a9190611f2c565b60405180910390f35b34801561042f57600080fd5b5061044a60048036038101906104459190612347565b610cc9565b6040516104579190611e81565b60405180910390f35b34801561046c57600080fd5b5061048760048036038101906104829190612428565b610d5d565b6040516104949190612108565b60405180910390f35b60007f80ac58cd000000000000000000000000000000000000000000000000000000007bffffffffffffffffffffffffffffffffffffffffffffffffffffffff1916827bffffffffffffffffffffffffffffffffffffffffffffffffffffffff1916148061056857507f5b5e139f000000000000000000000000000000000000000000000000000000007bffffffffffffffffffffffffffffffffffffffffffffffffffffffff1916827bffffffffffffffffffffffffffffffffffffffffffffffffffffffff1916145b80610578575061057782610e5f565b5b9050919050565b60606000805461058e906124b3565b80601f01602080910402602001604051908101604052809291908181526020018280546105ba906124b3565b80156106075780601f106105dc57610100808354040283529160200191610607565b820191906000526020600020905b8154815290600101906020018083116105ea57829003601f168201915b5050505050905090565b600061061c82610ec9565b6004600083815260200190815260200160002060009054906101000a900473ffffffffffffffffffffffffffffffffffffffff169050919050565b600061066282610910565b90508073ffffffffffffffffffffffffffffffffffffffff168373ffffffffffffffffffffffffffffffffffffffff16036106d2576040517f08c379a00000000000000000000000000000000000000000000000000000000081526004016106c990612556565b60405180910390fd5b8073ffffffffffffffffffffffffffffffffffffffff166106f1610f14565b73ffffffffffffffffffffffffffffffffffffffff161480610720575061071f8161071a610f14565b610cc9565b5b61075f576040517f08c379a0000000000000000000000000000000000000000000000000000000008152600401610756906125e8565b60405180910390fd5b6107698383610f1c565b505050565b60096020528060005260406000206000915054906101000a900460ff1681565b61079f610799610f14565b82610fd5565b6107de576040517f08c379a00000000000000000000000000000000000000000000000000000000081526004016107d59061267a565b60405180910390fd5b6107e983838361106a565b505050565b61080983838360405180602001604052806000815250610b35565b505050565b60011515600860008473ffffffffffffffffffffffffffffffffffffffff1673ffffffffffffffffffffffffffffffffffffffff16815260200190815260200160002060009054906101000a900460ff1615151461086f5761086e61269a565b5b627270e0811115610899576001600b600082825461088d91906126f8565b925050819055506108b4565b6001600c60008282546108ac91906126f8565b925050819055505b6001600960008473ffffffffffffffffffffffffffffffffffffffff1673ffffffffffffffffffffffffffffffffffffffff16815260200190815260200160002060006101000a81548160ff0219169083151502179055505050565b60008061091c83611363565b9050600073ffffffffffffffffffffffffffffffffffffffff168173ffffffffffffffffffffffffffffffffffffffff160361098d576040517f08c379a000000000000000000000000000000000000000000000000000000000815260040161098490612778565b60405180910390fd5b80915050919050565b60008073ffffffffffffffffffffffffffffffffffffffff168273ffffffffffffffffffffffffffffffffffffffff1603610a06576040517f08c379a00000000000000000000000000000000000000000000000000000000081526004016109fd9061280a565b60405180910390fd5b600360008373ffffffffffffffffffffffffffffffffffffffff1673ffffffffffffffffffffffffffffffffffffffff168152602001908152602001600020549050919050565b606060018054610a5c906124b3565b80601f0160208091040260200160405190810160405280929190818152602001828054610a88906124b3565b8015610ad55780601f10610aaa57610100808354040283529160200191610ad5565b820191906000526020600020905b815481529060010190602001808311610ab857829003601f168201915b5050505050905090565b610af1610aea610f14565b83836113a0565b5050565b6000600a54600c54600b54610b0a91906126f8565b14610b1857610b1761269a565b5b600c54600b541115610b2d5760019050610b32565b600090505b90565b610b46610b40610f14565b83610fd5565b610b85576040517f08c379a0000000000000000000000000000000000000000000000000000000008152600401610b7c9061267a565b60405180910390fd5b610b918484848461150c565b50505050565b60086020528060005260406000206000915054906101000a900460ff1681565b6060610bc282610ec9565b6000600660008481526020019081526020016000208054610be2906124b3565b80601f0160208091040260200160405190810160405280929190818152602001828054610c0e906124b3565b8015610c5b5780601f10610c3057610100808354040283529160200191610c5b565b820191906000526020600020905b815481529060010190602001808311610c3e57829003601f168201915b505050505090506000610c6c611568565b90506000815103610c81578192505050610cc4565b600082511115610cb6578082604051602001610c9e929190612866565b60405160208183030381529060405292505050610cc4565b610cbf8461157f565b925050505b919050565b6000600560008473ffffffffffffffffffffffffffffffffffffffff1673ffffffffffffffffffffffffffffffffffffffff16815260200190815260200160002060008373ffffffffffffffffffffffffffffffffffffffff1673ffffffffffffffffffffffffffffffffffffffff16815260200190815260200160002060009054906101000a900460ff16905092915050565b6000610d6960076115e7565b6000610d7560076115fd565b9050610d81848261160b565b610d8b8184611828565b6001600860008673ffffffffffffffffffffffffffffffffffffffff1673ffffffffffffffffffffffffffffffffffffffff16815260200190815260200160002060006101000a81548160ff0219169083151502179055506000600960008673ffffffffffffffffffffffffffffffffffffffff1673ffffffffffffffffffffffffffffffffffffffff16815260200190815260200160002060006101000a81548160ff0219169083151502179055506001600a6000828254610e4e91906126f8565b925050819055508091505092915050565b60007f01ffc9a7000000000000000000000000000000000000000000000000000000007bffffffffffffffffffffffffffffffffffffffffffffffffffffffff1916827bffffffffffffffffffffffffffffffffffffffffffffffffffffffff1916149050919050565b610ed281611895565b610f11576040517f08c379a0000000000000000000000000000000000000000000000000000000008152600401610f0890612778565b60405180910390fd5b50565b600033905090565b816004600083815260200190815260200160002060006101000a81548173ffffffffffffffffffffffffffffffffffffffff021916908373ffffffffffffffffffffffffffffffffffffffff160217905550808273ffffffffffffffffffffffffffffffffffffffff16610f8f83610910565b73ffffffffffffffffffffffffffffffffffffffff167f8c5be1e5ebec7d5bd14f71427d1e84f3dd0314c0f7b2291e5b200ac8c7c3b92560405160405180910390a45050565b600080610fe183610910565b90508073ffffffffffffffffffffffffffffffffffffffff168473ffffffffffffffffffffffffffffffffffffffff16148061102357506110228185610cc9565b5b8061106157508373ffffffffffffffffffffffffffffffffffffffff1661104984610611565b73ffffffffffffffffffffffffffffffffffffffff16145b91505092915050565b8273ffffffffffffffffffffffffffffffffffffffff1661108a82610910565b73ffffffffffffffffffffffffffffffffffffffff16146110e0576040517f08c379a00000000000000000000000000000000000000000000000000000000081526004016110d7906128fc565b60405180910390fd5b600073ffffffffffffffffffffffffffffffffffffffff168273ffffffffffffffffffffffffffffffffffffffff160361114f576040517f08c379a00000000000000000000000000000000000000000000000000000000081526004016111469061298e565b60405180910390fd5b61115c83838360016118d6565b8273ffffffffffffffffffffffffffffffffffffffff1661117c82610910565b73ffffffffffffffffffffffffffffffffffffffff16146111d2576040517f08c379a00000000000000000000000000000000000000000000000000000000081526004016111c9906128fc565b60405180910390fd5b6004600082815260200190815260200160002060006101000a81549073ffffffffffffffffffffffffffffffffffffffff02191690556001600360008573ffffffffffffffffffffffffffffffffffffffff1673ffffffffffffffffffffffffffffffffffffffff168152602001908152602001600020600082825403925050819055506001600360008473ffffffffffffffffffffffffffffffffffffffff1673ffffffffffffffffffffffffffffffffffffffff16815260200190815260200160002060008282540192505081905550816002600083815260200190815260200160002060006101000a81548173ffffffffffffffffffffffffffffffffffffffff021916908373ffffffffffffffffffffffffffffffffffffffff160217905550808273ffffffffffffffffffffffffffffffffffffffff168473ffffffffffffffffffffffffffffffffffffffff167fddf252ad1be2c89b69c2b068fc378daa952ba7f163c4a11628f55a4df523b3ef60405160405180910390a461135e83838360016119fc565b505050565b60006002600083815260200190815260200160002060009054906101000a900473ffffffffffffffffffffffffffffffffffffffff169050919050565b8173ffffffffffffffffffffffffffffffffffffffff168373ffffffffffffffffffffffffffffffffffffffff160361140e576040517f08c379a0000000000000000000000000000000000000000000000000000000008152600401611405906129fa565b60405180910390fd5b80600560008573ffffffffffffffffffffffffffffffffffffffff1673ffffffffffffffffffffffffffffffffffffffff16815260200190815260200160002060008473ffffffffffffffffffffffffffffffffffffffff1673ffffffffffffffffffffffffffffffffffffffff16815260200190815260200160002060006101000a81548160ff0219169083151502179055508173ffffffffffffffffffffffffffffffffffffffff168373ffffffffffffffffffffffffffffffffffffffff167f17307eab39ab6107e8899845ad3d59bd9653f200f220920489ca2b5937696c31836040516114ff9190611e81565b60405180910390a3505050565b61151784848461106a565b61152384848484611a02565b611562576040517f08c379a000000000000000000000000000000000000000000000000000000000815260040161155990612a8c565b60405180910390fd5b50505050565b606060405180602001604052806000815250905090565b606061158a82610ec9565b6000611594611568565b905060008151116115b457604051806020016040528060008152506115df565b806115be84611b89565b6040516020016115cf929190612866565b6040516020818303038152906040525b915050919050565b6001816000016000828254019250508190555050565b600081600001549050919050565b600073ffffffffffffffffffffffffffffffffffffffff168273ffffffffffffffffffffffffffffffffffffffff160361167a576040517f08c379a000000000000000000000000000000000000000000000000000000000815260040161167190612af8565b60405180910390fd5b61168381611895565b156116c3576040517f08c379a00000000000000000000000000000000000000000000000000000000081526004016116ba90612b64565b60405180910390fd5b6116d16000838360016118d6565b6116da81611895565b1561171a576040517f08c379a000000000000000000000000000000000000000000000000000000000815260040161171190612b64565b60405180910390fd5b6001600360008473ffffffffffffffffffffffffffffffffffffffff1673ffffffffffffffffffffffffffffffffffffffff16815260200190815260200160002060008282540192505081905550816002600083815260200190815260200160002060006101000a81548173ffffffffffffffffffffffffffffffffffffffff021916908373ffffffffffffffffffffffffffffffffffffffff160217905550808273ffffffffffffffffffffffffffffffffffffffff16600073ffffffffffffffffffffffffffffffffffffffff167fddf252ad1be2c89b69c2b068fc378daa952ba7f163c4a11628f55a4df523b3ef60405160405180910390a46118246000838360016119fc565b5050565b61183182611895565b611870576040517f08c379a000000000000000000000000000000000000000000000000000000000815260040161186790612bf6565b60405180910390fd5b806006600084815260200190815260200160002090816118909190612dc2565b505050565b60008073ffffffffffffffffffffffffffffffffffffffff166118b783611363565b73ffffffffffffffffffffffffffffffffffffffff1614159050919050565b60018111156119f657600073ffffffffffffffffffffffffffffffffffffffff168473ffffffffffffffffffffffffffffffffffffffff161461196a5780600360008673ffffffffffffffffffffffffffffffffffffffff1673ffffffffffffffffffffffffffffffffffffffff16815260200190815260200160002060008282546119629190612e94565b925050819055505b600073ffffffffffffffffffffffffffffffffffffffff168373ffffffffffffffffffffffffffffffffffffffff16146119f55780600360008573ffffffffffffffffffffffffffffffffffffffff1673ffffffffffffffffffffffffffffffffffffffff16815260200190815260200160002060008282546119ed91906126f8565b925050819055505b5b50505050565b50505050565b6000611a238473ffffffffffffffffffffffffffffffffffffffff16611c57565b15611b7c578373ffffffffffffffffffffffffffffffffffffffff1663150b7a02611a4c610f14565b8786866040518563ffffffff1660e01b8152600401611a6e9493929190612f1d565b6020604051808303816000875af1925050508015611aaa57506040513d601f19601f82011682018060405250810190611aa79190612f7e565b60015b611b2c573d8060008114611ada576040519150601f19603f3d011682016040523d82523d6000602084013e611adf565b606091505b506000815103611b24576040517f08c379a0000000000000000000000000000000000000000000000000000000008152600401611b1b90612a8c565b60405180910390fd5b805181602001fd5b63150b7a0260e01b7bffffffffffffffffffffffffffffffffffffffffffffffffffffffff1916817bffffffffffffffffffffffffffffffffffffffffffffffffffffffff191614915050611b81565b600190505b949350505050565b606060006001611b9884611c7a565b01905060008167ffffffffffffffff811115611bb757611bb6612199565b5b6040519080825280601f01601f191660200182016040528015611be95781602001600182028036833780820191505090505b509050600082602001820190505b600115611c4c578080600190039150507f3031323334353637383961626364656600000000000000000000000000000000600a86061a8153600a8581611c4057611c3f612fab565b5b04945060008503611bf7575b819350505050919050565b6000808273ffffffffffffffffffffffffffffffffffffffff163b119050919050565b600080600090507a184f03e93ff9f4daa797ed6e38ed64bf6a1f0100000000000000008310611cd8577a184f03e93ff9f4daa797ed6e38ed64bf6a1f0100000000000000008381611cce57611ccd612fab565b5b0492506040810190505b6d04ee2d6d415b85acef81000000008310611d15576d04ee2d6d415b85acef81000000008381611d0b57611d0a612fab565b5b0492506020810190505b662386f26fc100008310611d4457662386f26fc100008381611d3a57611d39612fab565b5b0492506010810190505b6305f5e1008310611d6d576305f5e1008381611d6357611d62612fab565b5b0492506008810190505b6127108310611d92576127108381611d8857611d87612fab565b5b0492506004810190505b60648310611db55760648381611dab57611daa612fab565b5b0492506002810190505b600a8310611dc4576001810190505b80915050919050565b6000604051905090565b600080fd5b600080fd5b60007fffffffff0000000000000000000000000000000000000000000000000000000082169050919050565b611e1681611de1565b8114611e2157600080fd5b50565b600081359050611e3381611e0d565b92915050565b600060208284031215611e4f57611e4e611dd7565b5b6000611e5d84828501611e24565b91505092915050565b60008115159050919050565b611e7b81611e66565b82525050565b6000602082019050611e966000830184611e72565b92915050565b600081519050919050565b600082825260208201905092915050565b60005b83811015611ed6578082015181840152602081019050611ebb565b60008484015250505050565b6000601f19601f8301169050919050565b6000611efe82611e9c565b611f088185611ea7565b9350611f18818560208601611eb8565b611f2181611ee2565b840191505092915050565b60006020820190508181036000830152611f468184611ef3565b905092915050565b6000819050919050565b611f6181611f4e565b8114611f6c57600080fd5b50565b600081359050611f7e81611f58565b92915050565b600060208284031215611f9a57611f99611dd7565b5b6000611fa884828501611f6f565b91505092915050565b600073ffffffffffffffffffffffffffffffffffffffff82169050919050565b6000611fdc82611fb1565b9050919050565b611fec81611fd1565b82525050565b60006020820190506120076000830184611fe3565b92915050565b61201681611fd1565b811461202157600080fd5b50565b6000813590506120338161200d565b92915050565b600080604083850312156120505761204f611dd7565b5b600061205e85828601612024565b925050602061206f85828601611f6f565b9150509250929050565b60006020828403121561208f5761208e611dd7565b5b600061209d84828501612024565b91505092915050565b6000806000606084860312156120bf576120be611dd7565b5b60006120cd86828701612024565b93505060206120de86828701612024565b92505060406120ef86828701611f6f565b9150509250925092565b61210281611f4e565b82525050565b600060208201905061211d60008301846120f9565b92915050565b61212c81611e66565b811461213757600080fd5b50565b60008135905061214981612123565b92915050565b6000806040838503121561216657612165611dd7565b5b600061217485828601612024565b92505060206121858582860161213a565b9150509250929050565b600080fd5b600080fd5b7f4e487b7100000000000000000000000000000000000000000000000000000000600052604160045260246000fd5b6121d182611ee2565b810181811067ffffffffffffffff821117156121f0576121ef612199565b5b80604052505050565b6000612203611dcd565b905061220f82826121c8565b919050565b600067ffffffffffffffff82111561222f5761222e612199565b5b61223882611ee2565b9050602081019050919050565b82818337600083830152505050565b600061226761226284612214565b6121f9565b90508281526020810184848401111561228357612282612194565b5b61228e848285612245565b509392505050565b600082601f8301126122ab576122aa61218f565b5b81356122bb848260208601612254565b91505092915050565b600080600080608085870312156122de576122dd611dd7565b5b60006122ec87828801612024565b94505060206122fd87828801612024565b935050604061230e87828801611f6f565b925050606085013567ffffffffffffffff81111561232f5761232e611ddc565b5b61233b87828801612296565b91505092959194509250565b6000806040838503121561235e5761235d611dd7565b5b600061236c85828601612024565b925050602061237d85828601612024565b9150509250929050565b600067ffffffffffffffff8211156123a2576123a1612199565b5b6123ab82611ee2565b9050602081019050919050565b60006123cb6123c684612387565b6121f9565b9050828152602081018484840111156123e7576123e6612194565b5b6123f2848285612245565b509392505050565b600082601f83011261240f5761240e61218f565b5b813561241f8482602086016123b8565b91505092915050565b6000806040838503121561243f5761243e611dd7565b5b600061244d85828601612024565b925050602083013567ffffffffffffffff81111561246e5761246d611ddc565b5b61247a858286016123fa565b9150509250929050565b7f4e487b7100000000000000000000000000000000000000000000000000000000600052602260045260246000fd5b600060028204905060018216806124cb57607f821691505b6020821081036124de576124dd612484565b5b50919050565b7f4552433732313a20617070726f76616c20746f2063757272656e74206f776e6560008201527f7200000000000000000000000000000000000000000000000000000000000000602082015250565b6000612540602183611ea7565b915061254b826124e4565b604082019050919050565b6000602082019050818103600083015261256f81612533565b9050919050565b7f4552433732313a20617070726f76652063616c6c6572206973206e6f7420746f60008201527f6b656e206f776e6572206f7220617070726f76656420666f7220616c6c000000602082015250565b60006125d2603d83611ea7565b91506125dd82612576565b604082019050919050565b60006020820190508181036000830152612601816125c5565b9050919050565b7f4552433732313a2063616c6c6572206973206e6f7420746f6b656e206f776e6560008201527f72206f7220617070726f76656400000000000000000000000000000000000000602082015250565b6000612664602d83611ea7565b915061266f82612608565b604082019050919050565b6000602082019050818103600083015261269381612657565b9050919050565b7f4e487b7100000000000000000000000000000000000000000000000000000000600052600160045260246000fd5b7f4e487b7100000000000000000000000000000000000000000000000000000000600052601160045260246000fd5b600061270382611f4e565b915061270e83611f4e565b9250828201905080821115612726576127256126c9565b5b92915050565b7f4552433732313a20696e76616c696420746f6b656e2049440000000000000000600082015250565b6000612762601883611ea7565b915061276d8261272c565b602082019050919050565b6000602082019050818103600083015261279181612755565b9050919050565b7f4552433732313a2061646472657373207a65726f206973206e6f74206120766160008201527f6c6964206f776e65720000000000000000000000000000000000000000000000602082015250565b60006127f4602983611ea7565b91506127ff82612798565b604082019050919050565b60006020820190508181036000830152612823816127e7565b9050919050565b600081905092915050565b600061284082611e9c565b61284a818561282a565b935061285a818560208601611eb8565b80840191505092915050565b60006128728285612835565b915061287e8284612835565b91508190509392505050565b7f4552433732313a207472616e736665722066726f6d20696e636f72726563742060008201527f6f776e6572000000000000000000000000000000000000000000000000000000602082015250565b60006128e6602583611ea7565b91506128f18261288a565b604082019050919050565b60006020820190508181036000830152612915816128d9565b9050919050565b7f4552433732313a207472616e7366657220746f20746865207a65726f2061646460008201527f7265737300000000000000000000000000000000000000000000000000000000602082015250565b6000612978602483611ea7565b91506129838261291c565b604082019050919050565b600060208201905081810360008301526129a78161296b565b9050919050565b7f4552433732313a20617070726f766520746f2063616c6c657200000000000000600082015250565b60006129e4601983611ea7565b91506129ef826129ae565b602082019050919050565b60006020820190508181036000830152612a13816129d7565b9050919050565b7f4552433732313a207472616e7366657220746f206e6f6e20455243373231526560008201527f63656976657220696d706c656d656e7465720000000000000000000000000000602082015250565b6000612a76603283611ea7565b9150612a8182612a1a565b604082019050919050565b60006020820190508181036000830152612aa581612a69565b9050919050565b7f4552433732313a206d696e7420746f20746865207a65726f2061646472657373600082015250565b6000612ae2602083611ea7565b9150612aed82612aac565b602082019050919050565b60006020820190508181036000830152612b1181612ad5565b9050919050565b7f4552433732313a20746f6b656e20616c7265616479206d696e74656400000000600082015250565b6000612b4e601c83611ea7565b9150612b5982612b18565b602082019050919050565b60006020820190508181036000830152612b7d81612b41565b9050919050565b7f45524337323155524953746f726167653a2055524920736574206f66206e6f6e60008201527f6578697374656e7420746f6b656e000000000000000000000000000000000000602082015250565b6000612be0602e83611ea7565b9150612beb82612b84565b604082019050919050565b60006020820190508181036000830152612c0f81612bd3565b9050919050565b60008190508160005260206000209050919050565b60006020601f8301049050919050565b600082821b905092915050565b600060088302612c787fffffffffffffffffffffffffffffffffffffffffffffffffffffffffffffffff82612c3b565b612c828683612c3b565b95508019841693508086168417925050509392505050565b6000819050919050565b6000612cbf612cba612cb584611f4e565b612c9a565b611f4e565b9050919050565b6000819050919050565b612cd983612ca4565b612ced612ce582612cc6565b848454612c48565b825550505050565b600090565b612d02612cf5565b612d0d818484612cd0565b505050565b5b81811015612d3157612d26600082612cfa565b600181019050612d13565b5050565b601f821115612d7657612d4781612c16565b612d5084612c2b565b81016020851015612d5f578190505b612d73612d6b85612c2b565b830182612d12565b50505b505050565b600082821c905092915050565b6000612d9960001984600802612d7b565b1980831691505092915050565b6000612db28383612d88565b9150826002028217905092915050565b612dcb82611e9c565b67ffffffffffffffff811115612de457612de3612199565b5b612dee82546124b3565b612df9828285612d35565b600060209050601f831160018114612e2c5760008415612e1a578287015190505b612e248582612da6565b865550612e8c565b601f198416612e3a86612c16565b60005b82811015612e6257848901518255600182019150602085019450602081019050612e3d565b86831015612e7f5784890151612e7b601f891682612d88565b8355505b6001600288020188555050505b505050505050565b6000612e9f82611f4e565b9150612eaa83611f4e565b9250828203905081811115612ec257612ec16126c9565b5b92915050565b600081519050919050565b600082825260208201905092915050565b6000612eef82612ec8565b612ef98185612ed3565b9350612f09818560208601611eb8565b612f1281611ee2565b840191505092915050565b6000608082019050612f326000830187611fe3565b612f3f6020830186611fe3565b612f4c60408301856120f9565b8181036060830152612f5e8184612ee4565b905095945050505050565b600081519050612f7881611e0d565b92915050565b600060208284031215612f9457612f93611dd7565b5b6000612fa284828501612f69565b91505092915050565b7f4e487b7100000000000000000000000000000000000000000000000000000000600052601260045260246000fdfea2646970667358221220fe8b9f1db196ceb9786ff1d12bc1a4c043b9b451412c6410b6e0c18effa5a08e64736f6c63430008110033",
  "immutableReferences": {},
  "source": "// SPDX-License-Identifier: MIT\r\npragma solidity >=0.4.22 <0.9.0;\r\npragma experimental ABIEncoderV2;\r\n\r\nimport \"@openzeppelin/contracts/token/ERC721/extensions/ERC721URIStorage.sol\";\r\nimport \"@openzeppelin/contracts/utils/Counters.sol\";\r\nimport \"./fedLearning.sol\";\r\n\r\ncontract Flockie is ERC721URIStorage {\r\n    using Counters for Counters.Counter;\r\n    Counters.Counter private _tokenIds;\r\n\r\n    mapping(address => bool) public isRegistered;\r\n    mapping(address => bool) public hasVoted;\r\n\r\n    uint voterCount = 0;\r\n    uint update = 0; \r\n    uint noUpdate = 0;\r\n\r\n    constructor() ERC721(\"Flockie\", \"FLK\") {}\r\n\r\n    // modifier onlyVoter() {\r\n    //     require(isRegistered[msg.sender] == true);\r\n    //     _;\r\n    // }\r\n\r\n    function mintNFT(address recipient, string memory tokenURI)\r\n        public\r\n        returns (uint256)\r\n    {\r\n        _tokenIds.increment();\r\n\r\n        uint256 newItemId = _tokenIds.current();\r\n        _mint(recipient, newItemId);\r\n        _setTokenURI(newItemId, tokenURI);\r\n        \r\n        isRegistered[recipient] = true;\r\n        hasVoted[recipient] = false;\r\n        voterCount += 1;\r\n\r\n        return newItemId;\r\n    }\r\n\r\n    function vote(address voter, uint acc) public payable {\r\n        assert(isRegistered[voter]==true); //voter == msg.sender\r\n        if(acc > 7500000){\r\n            update += 1;\r\n        }\r\n        else{\r\n            noUpdate += 1;\r\n        }\r\n        hasVoted[voter] = true;\r\n    }\r\n\r\n    function getVoteUpdate() public view returns(bool){\r\n        assert(update + noUpdate == voterCount);\r\n        if(update > noUpdate){\r\n            return true;\r\n        }\r\n        return false;\r\n        // return true;\r\n    }\r\n\r\n\r\n}",
  "sourcePath": "C:\\Users\\saimo\\OneDrive\\Desktop\\MINST-dataset\\Fed-Block-Final\\contracts\\flockie.sol",
  "compiler": {
    "name": "solc",
    "version": "0.8.17+commit.8df45f5f.Emscripten.clang"
  },
  "schemaVersion": "3.4.16",
  "updatedAt": "2024-02-23T04:10:36.416Z",
  "networkType": "ethereum",
  "devdoc": {
    "kind": "dev",
    "methods": {
      "approve(address,uint256)": {
        "details": "See {IERC721-approve}."
      },
      "balanceOf(address)": {
        "details": "See {IERC721-balanceOf}."
      },
      "getApproved(uint256)": {
        "details": "See {IERC721-getApproved}."
      },
      "isApprovedForAll(address,address)": {
        "details": "See {IERC721-isApprovedForAll}."
      },
      "name()": {
        "details": "See {IERC721Metadata-name}."
      },
      "ownerOf(uint256)": {
        "details": "See {IERC721-ownerOf}."
      },
      "safeTransferFrom(address,address,uint256)": {
        "details": "See {IERC721-safeTransferFrom}."
      },
      "safeTransferFrom(address,address,uint256,bytes)": {
        "details": "See {IERC721-safeTransferFrom}."
      },
      "setApprovalForAll(address,bool)": {
        "details": "See {IERC721-setApprovalForAll}."
      },
      "supportsInterface(bytes4)": {
        "details": "See {IERC165-supportsInterface}."
      },
      "symbol()": {
        "details": "See {IERC721Metadata-symbol}."
      },
      "tokenURI(uint256)": {
        "details": "See {IERC721Metadata-tokenURI}."
      },
      "transferFrom(address,address,uint256)": {
        "details": "See {IERC721-transferFrom}."
      }
    },
    "version": 1
  },
  "userdoc": {
    "kind": "user",
    "methods": {},
    "version": 1
  }
}